:020000040000FA
:020000001728BF
:040002000034003492
:080008008312031300308B008A
:100010000C185928831203138608061E4328861ECF
:100020004E28831203138601C8308B000900831207
:100030000313C8308B001014DC308E000B308F009F
:10004000901610168316031306309F0000308500AB
:10005000831603130C1400308800860183160313E3
:100060003030860083120313880088018312031343
:100070000530A400A5000130A100A0000030A200BE
:1000800000000000402883120313A10AA40B1128CA
:1000900049280130A1000530A40011288312031360
:1000A000A00AA50B112854280130A0000530A50096
:1000B0001128831203130C10DC308E000B308F00DC
:1000C00090161016A20A2208A300A30CA31320085E
:1000D000A302031D6C286E28031C1128A20121080D
:1000E0008807881A7828081B7828881B7828112800
:0600F00000308800112819
:02400E00313748
:00000001FF
